:020000040800F2
:10000000E0080020CD010008A1100008B10E000892
:10001000DD0F000813070008B325000800000000EA
:10002000000000000000000000000000811900082E
:100030000F0A000800000000E1130008E51A00089C
:10004000E7010008E7010008E7010008E7010008F0
:10005000E7010008E7010008E7010008E7010008E0
:10006000E7010008E7010008E7010008E7010008D0
:10007000E7010008E7010008E7010008E7010008C0
:10008000E7010008E7010008E7010008E7010008B0
:10009000E7010008E7010008E7010008E7010008A0
:1000A000E7010008E7010008E7010008E701000890
:1000B000E7010008E7010008891D0008E7010008C2
:1000C000E7010008E7010008E7010008E701000870
:1000D000E7010008C5230008E7010008E701000860
:1000E000E7010008E7010008E701000800F002F856
:1000F00000F05CF80AA090E8000C82448344AAF166
:100100000107DA4501D100F051F8AFF2090EBAE863
:100110000F0013F0010F18BFFB1A43F0010318473B
:10012000542E0000742E00000A444FF0000C10F80A
:10013000013B13F0070408BF10F8014B1D1108BF65
:1001400010F8015B641E05D010F8016B641E01F805
:10015000016BF9D113F0080F1EBF10F8014BAD1C55
:100160000C1B09D16D1E58BF01F801CBFAD505E073
:1001700014F8016B01F8016B6D1EF9D59142D6D3CD
:10018000704700000023002400250026103A28BFF5
:1001900078C1FBD8520728BF30C148BF0B607047F9
:1001A000002070471FB51FBD10B510BD00F062F9EB
:1001B0001146FFF7F7FF02F0BFFA00F080F903B431
:1001C000FFF7F2FF03BC02F018FA0000094880476D
:1001D00009480047FEE7FEE7FEE7FEE7FEE7FEE729
:1001E000FEE7FEE7FEE7FEE704480549054A064B41
:1001F00070470000E91A0008ED000008E002002046
:10020000E0080020E0040020E00400200FB40449CE
:1002100010B503AA029800F017F910BC5DF814FBA2
:100220004C0100202DE9F05F894604464FF0000A9A
:10023000DFF824B1FB44C0F820A02046E1688847DD
:1002400000287DD0252806D0D4E901219047206AD6
:10025000401C2062F1E700255F462046E1688847A0
:100260002028064607DB312E05D2B81910F8200CDD
:1002700008B10543F1E7A80701D525F00405C4F846
:100280001CA00027C4F818A02A2E09D0304602F07E
:10029000ADF938B304EB8708303EC8F8186019E0B0
:1002A00059F8041B204604EB87029161E1688847F6
:1002B000012F064618D1E069002820DA25F0200534
:1002C0001DE0D8F8180000EB800006EB4000303845
:1002D000C8F818002046E1688847064602F086F90B
:1002E0000028EED1012F0AD02E2E08D12046E16839
:1002F00088477F1C0646022F45F02005C4DBA06915
:10030000002803DA404245F00105A061E80701D06A
:1003100025F01005A6B1A6F14100192802D8203613
:1003200045F400654A463146204625604D46FFF7B4
:1003300037FF60B1012807D0ED1D25F0070000E070
:1003400007E000F1080978E705F1040975E7304690
:100350007AE7206ABDE8F09F2A2D000030B50546F7
:100360000B462A4613F8014B12F8010B08B1A042C4
:10037000F8D01CB1002802D06D1CF1E7284630BD32
:100380004FF000020429C0F0128010F0030C00F0BE
:100390001B80CCF1040CBCF1020F18BF00F8012B3C
:1003A000A8BF20F8022BA1EB0C0100F00DB85FEA0A
:1003B000C17C24BF00F8012B00F8012B48BF00F8D6
:1003C000012B70474FF0000200B513469446964645
:1003D000203922BFA0E80C50A0E80C50B1F1200158
:1003E000BFF4F7AF090728BFA0E80C5048BF0CC006
:1003F0005DF804EB890028BF40F8042B08BF704764
:1004000048BF20F8022B11F0804F18BF00F8012BD5
:10041000704770477047704701694A1C026108784D
:10042000704700B58FB0CDE9013100210591054934
:100430007944CDE9031011466846FFF7F3FE0FB08B
:1004400000BD0000E5FFFFFF074B70B50D467B4484
:10045000FFF7E7FF0446284600F008F810B14FF018
:10046000FF3070BD204670BD0B220000007B00F005
:1004700080007047754600F02BF8AE4605006946CF
:10048000534620F00700854618B020B5FFF7ACFEB4
:10049000BDE820404FF000064FF000074FF0000885
:1004A0004FF0000B21F00701AC46ACE8C009ACE806
:1004B000C009ACE8C009ACE8C0098D46704710B56A
:1004C0000446AFF300802046BDE81040FFF777BE3A
:1004D000004870478002002000B587B001214FF42A
:1004E000037001F0B9F83320ADF8180000208DF842
:1004F0001B0006A91F4800F0F3FA0120ADF8180010
:1005000000208DF81B0006A91B4800F0E9FA002026
:1005100001908DF808008DF809004FF460200390D9
:100520000020049001208DF8140001A9134800F068
:1005300057F84FF4004001F073F801210F4800F024
:1005400022F80E4800F0D0F800BF0C4800F03DF84B
:100550000028FAD1094800F0D7F800BF074800F09A
:100560001DF80028FAD10121044800F00CF807B06A
:1005700000BD000000080140000C014000240140C3
:10058000CA430260704721B1826842F00102826072
:1005900003E0826822F00102826070470146002079
:1005A0008A6802F004020AB1012000E000207047CE
:1005B0000146C86C80B270470246002013680B40A9
:1005C0000BB1012000E000207047014600208A683E
:1005D00002F008020AB1012000E00020704700008C
:1005E00030B502460020002350680F4C20400D79A2
:1005F0000C6844EA05242043506090680B4C20406E
:10060000D1E902542C434D7944EA450420439060DB
:10061000D06A20F470000C7C641EE4B2234340EAEC
:100620000350D06230BD0000FFFEF0FFFDF7F1FF88
:10063000F0B504460D4600200021092D11DDE068CB
:10064000A5F10A0606EB4607072606FA07F18843D6
:10065000A5F10A0606EB460603FA06F10843E06038
:100660000CE0206905EB4507072606FA07F18843E9
:1006700005EB450603FA06F108432061072A0FDA65
:10068000606B561E06EB86071F2606FA07F18843A5
:10069000561E06EB860605FA06F10843606322E063
:1006A0000D2A0FDA206BD61F06EB86071F2606FAE7
:1006B00007F18843D61F06EB860605FA06F10843C4
:1006C000206310E0E06AA2F10D0606EB86071F2604
:1006D00006FA07F18843A2F10D0606EB860605FA35
:1006E00006F10843E062F0BD816841F008018160D5
:1006F000704721B1826842F4A002826003E0826800
:1007000022F4A00282607047816841F00401816098
:10071000704700BFFEE7000010B54FF400511948C4
:1007200000F0BBFA4FF4967001F069FF4FF40051EE
:10073000144800F0B4FAC82001F061FF4FF40051F2
:10074000104800F0AAFA4FF4967001F058FF4FF4E9
:1007500000510C4800F0A3FAC82001F050FF4FF4FC
:100760000051084800F099FA4FF4967001F047FFE5
:100770004FF40051034800F092FAC82001F03FFF07
:1007800010BD0000001001402DE9F04706460D465F
:10079000002417491748006802F066FA8146164996
:1007A000284602F061FA8246494602F033F9804653
:1007B00002F0F2F90746384602F00AFA814630465E
:1007C00002F006FA8246494600F00CFE804602F02E
:1007D000E3F90446B4F5E16F02DD4FF4E16403E0B0
:1007E00014F5E16F00DA054C2046BDE8F087000003
:1007F0000000C842F00000200000C344F8F8FFFFEA
:100800002DE9F04706460D460024174917480068B1
:1008100002F02AFA81461649284602F025FA824655
:10082000494602F0F7F8804602F0B6F90746384626
:1008300002F0CEF98146304602F0CAF982464946B6
:1008400000F0D0FD804602F0A7F90446B4F5E16F50
:1008500002DD4FF4E16403E014F5E16F00DA054CCA
:100860002046BDE8F08700000000C842F0000020EC
:100870000000C344F8F8FFFF2DE9F04105460024CD
:100880002E46304602F0A4F9804601F075FD074679
:1008900002F082F90446B4F5E16F02DD4FF4E16441
:1008A00003E014F5E16F00DA014C2046BDE8F08169
:1008B000F8F8FFFF70B50A261425002400BF21E0D8
:1008C000032618E002214A4800F0E9F904FB05F18B
:1008D00001F5FA7188B201F0A1FE0221444800F04E
:1008E000DCF940F6C41104FB151188B201F096FE44
:1008F000112001F084FE301EA6F10101CEB2E1D13B
:10090000601CC4B2212CDBDD002421E00F2618E09E
:100910000221374800F0C3F904FB05F101F59161AC
:1009200088B201F07BFE0221314800F0B6F904FBE9
:1009300005F1C1F5E66188B201F070FE112001F009
:100940005EFE301EA6F10101CEB2E1D1601CC4B240
:10095000202CDBDD002421E00F2618E002212448B2
:1009600000F09DF904FB05F1C1F5E16188B201F0E9
:1009700055FE02211E4800F090F904FB05F101F537
:10098000966188B201F04AFE112001F038FE301E57
:10099000A6F10101CEB2E1D1601CC4B2202CDBDD96
:1009A000002421E0052618E00221114800F077F923
:1009B00004FB05F1C1F5916188B201F02FFE02211F
:1009C0000B4800F06AF904FB05F101F5E66188B215
:1009D00001F024FE112001F012FE301EA6F10101EB
:1009E000CEB2E1D1601CC4B2212CDBDD70BD0000B1
:1009F000000C014070B505460C46284600F0A6FEE6
:100A0000064626EA0401284601F0D6FD70BD70476F
:100A100000B587B0012140F6040000F01DFE012161
:100A2000022000F009FE4FF44070ADF818000420D9
:100A30008DF81B0003208DF81A0006A9254800F048
:100A40004FF8C020ADF8180006A9224800F048F879
:100A50000020ADF80C004FF6FF70ADF8100000203C
:100A6000ADF81200ADF80E0003A91B4801F0D0FB51
:100A700000231A460321184801F055FA684601F090
:100A8000DDFA0020ADF808006946134801F080FA4D
:100A90000121114801F03BFA0020ADF80C004FF69F
:100AA000FF70ADF8100003A90C4801F0B1FB002362
:100AB0001A460321094801F036FA0020ADF8080073
:100AC0006946064801F064FA0121044801F01FFA62
:100AD00007B000BD00080140002C014000040040A8
:100AE0002DE9F041024600250026002000230024C5
:100AF000002791F803C00CF00F0591F803C00CF02B
:100B0000100CBCF1000F03D091F802C04CEA0505AF
:100B100091F800C0BCF1000F31D0146800202BE028
:100B20004FF0010C0CFA00F3B1F800C00CEA030618
:100B30009E4220D183004FF00F0C0CFA03F7BC4308
:100B400005FA03FC4CEA040491F803C0BCF1280F39
:100B500006D14FF0010C0CFA00FCC2F814C00AE0F8
:100B600091F803C0BCF1480F05D14FF0010C0CFA0D
:100B700000FCC2F810C0401C0828D1D31460B1F8A2
:100B800000C0BCF1FF0F34DD546800202EE000F1FE
:100B9000080C4FF0010808FA0CF3B1F800C00CEA99
:100BA00003069E4221D183004FF00F0C0CFA03F78D
:100BB000BC4305FA03FC4CEA040491F803C0BCF101
:100BC000280F05D100F1080C08FA0CF8C2F81480BF
:100BD00091F803C0BCF1480F07D100F1080C4FF0A9
:100BE000010808FA0CF8C2F81080401C0828CED37F
:100BF0005460BDE8F0810000F0B50A4600230024EF
:100C00000021002500F00046B6F1004F02D11D4E34
:100C1000F16901E01B4E7168C0F3034583B200F433
:100C20004016B6F5401F08D121F07061154E766868
:100C300026F07066134F7E6012E000F48016B6F561
:100C4000801F06D1032606FA05F4A14341F0706126
:100C500006E0460D360103FA06F6B14341F0706135
:100C600022B1460D360103FA06F6314300F0004684
:100C7000B6F1004F02D1034EF16101E0014E716007
:100C8000F0BD0000000001400246002093680B40C8
:100C90000BB1012000E00020704741617047016105
:100CA0007047000070B50546012D02D0032D12D10A
:100CB00008E00B4801F058F904B20021084801F09F
:100CC00079FA0AE0074801F04FF904B2002105481B
:100CD00001F070FA01E0002400BF00BF204670BDA3
:100CE000002C0140000400402DE9F047052000F0F1
:100CF000C1F8C0F58056042000F0BCF8C0F580575C
:100D0000012000F0B7F8C0F580555048006801F0A8
:100D10005FFF82464FF07E5101F0A6FF80462846D5
:100D200001F056FF8146414602F06AF827D848484C
:100D3000006801F04DFF82464FF07E5101F094FFB4
:100D40008046384601F044FF8146414602F058F89B
:100D500015D84048006801F03BFF82464FF07E51B5
:100D600001F082FF8046304601F032FF8146414665
:100D700002F046F803D847F23050BDE8F087A81BD0
:100D800035490968441835480068844203DD01206C
:100D90003349087007E0314800684042844202DA73
:100DA00000202F4908702F480068874221DA2B481D
:100DB0000068844208DD25480068C5EB40002A49E8
:100DC0000968C1EB400414E024480068844210DA4A
:100DD0002348007868B91D490968C5EB4101224ADA
:100DE0001268C2EB4100002801DB014600E04142ED
:100DF0004C421E480068874226DA18480068404284
:100E0000844209DA13480068022101FB1060184986
:100E10000968C1EB400417E0104800684042844272
:100E200012DD0F48007801280ED10A490968022214
:100E300002FB11610E4A1268C2EB4100002801DB7F
:100E4000014600E041420C46204696E7B8000020EB
:100E5000C0000020BC000020B4000020B000002032
:100E6000A8000020C4000020CC000020C800002002
:100E7000D000002010B504460523012221460B486E
:100E8000FFF7D6FB01210948FFF733FC00BF022121
:100E90000648FFF791FB0028F9D002210348FFF72D
:100EA0006FFB0248FFF784FB10BD000000240140E7
:100EB00000BFFEE710B50446412C24D108210846A6
:100EC000FFF798FD3D21112001F076FB86211720C8
:100ED00001F072FB7F21262001F06EFB1E212D20E8
:100EE00001F06AFB00212C2001F066FB8D212A20F5
:100EF00001F062FB3E212B2001F05EFB022001F09D
:100F00008DFB00F021F910BD08B501211C2000F077
:100F1000A3FB4FF40060ADF8000010208DF8030033
:100F200002208DF8020069462948FFF7D9FD4FF4E9
:100F300000612748FFF7B3FE4FF48050ADF8000082
:100F400010208DF8030002208DF802006946204829
:100F5000FFF7C6FD4FF480511D48FFF7A0FE4FF488
:100F60000040ADF8000010208DF8030002208DF83D
:100F7000020069461648FFF7B3FD4FF400411448DC
:100F8000FFF78BFE0220ADF8000010208DF8030063
:100F900002208DF8020069460E48FFF7A1FD0221EC
:100FA0000C48FFF77CFE4FF40050ADF80000102015
:100FB0008DF8030002208DF8020069460648FFF70D
:100FC0008FFD4FF400510448FFF769FE08BD000093
:100FD00000080140000C01400010014000BFFEE786
:100FE00000B589B00121084600F026FB0121082048
:100FF00000F032FB0C20ADF8200018208DF8230003
:1010000003208DF8220008A91E48FFF769FD41F66C
:101010001F40ADF818000020ADF81400ADF81A001C
:10102000ADF8160005A94FF0804001F0F1F86020FE
:10103000ADF804000120ADF806000020ADF80A006C
:10104000ADF80C0001A94FF0804001F009F808212B
:10105000C80601F055F801A94FF0804001F05AF898
:101060000821C80601F094F80121880700F040FF2C
:101070000121880700F04BFF0021084600F002FD27
:1010800009B000BD0008014010B500214FF08040BC
:1010900001F08BF800214FF0804001F088F810BD7E
:1010A0007047000070B5002100230F22C47804B3FC
:1010B000154C246804F4E064C4F5E064210AC1F12D
:1010C0000403CA40447804FA03F1847814402143AD
:1010D00009010E4C0678A155047804F01F0501247F
:1010E000AC4005786D11AD0005F1E025C5F8004173
:1010F00009E0047804F01F050124AC40044D067893
:10110000761145F8264070BD0CED00E000E400E0EB
:1011100080E100E002490143024A1160704700008B
:101120000000FA050CED00E0002005490860486069
:1011300088604FF00040034908604860886070474D
:10114000C8010020DC01002010B5142000F0FEFAD8
:10115000044604F0030018B90321142000F011FC28
:1011600010BDF0B587B00546002708210846FFF7F7
:1011700041FC00210D2001F01FFA80210E20FFF715
:1011800039FC93208DF8080020208DF8090001A873
:1011900002AB022202A900900C2000F01AF80646C9
:1011A00086B9002407E002A8005D285502A8005D6A
:1011B0004740601CC4B2042CF5DB02A8005DB842B5
:1011C00000D0022680210E2000F0DBFB304607B065
:1011D000F0BD2DE9FE4F0646884691469A46DDF859
:1011E00030B0022002900020019000900C2E06D01A
:1011F0000E2E09D1122001901020009005E07720DA
:1012000001903020009000E000BF00BF019840F046
:101210008001022001F0D0F980210420FFF7EAFBD1
:101220000021012001F0C8F980210A2000F0A9FB6B
:10123000002505E018F80510092001F0BDF96D1C26
:101240004D45F7D33146012001F0B6F90C2E03D1FC
:1012500080210D2000F095FB4FF47A7500BF04202B
:1012600000F074FA04466D1E35B104F0010018B99F
:10127000009820400028F2D080210D20FFF7BAFB13
:1012800095B3062000F062FA00F01B0068BB002056
:1012900002900198204000F0010008B10120029066
:1012A0000C2E24D10A2000F051FA04460C2000F044
:1012B0004DFA00F007072FB1601E07EBC000CBF816
:1012C000000002E0E000CBF8000004B90124122C79
:1012D00000DD1224002505E0092000F037FA0AF8A5
:1012E00005006D1CA542F7D301E002200290802189
:1012F0000C2000F046FB0021012001F05DF902986E
:10130000BDE8FE8F70B588B005460C46082108463A
:10131000FFF770FB07210D2001F04EF90321142087
:1013200000F02FFB8DF80C5002A803AB012203A99B
:1013300000900C20FFF74DFF06464EB9029810288A
:1013400006D19DF80C0020709DF80D00607000E043
:101350000226304608B070BD10B54FF480611F48BA
:10136000FFF79DFC012001F059F94FF480611B4803
:10137000FFF793FC012001F051F94FF48061174809
:10138000FFF78DFC012001F049F90F21012001F048
:1013900013F900BF012000F0D9F900F01000002877
:1013A000F8D1012001F03AF93D21112001F004F9B2
:1013B0001E212D2001F000F900212C2001F0FCF865
:1013C0008D212A2001F0F8F83E212B2001F0F4F8BD
:1013D0004021152001F0F0F810BD00000008014088
:1013E000704700002DE9F04704460D462946204687
:1013F00001F037FD2349086008460168224800686B
:1014000001F09AFA2049086020491F48006801F05D
:10141000F7FC02D21D481C4908601D491A480068A3
:1014200001F0EEFB02D21A4817490860194801681A
:101430001448006801F020FD804617488168404646
:1014400001F012FC0646144948680F49096801F08A
:101450000BFC8046104908680A49096801F004FC41
:101460008146414601F068FA0746314601F064FAC8
:101470000A49086003480068064908600748006890
:10148000BDE8F08724010020300100200000FA446C
:101490000000FAC42C0100200402002028010020D2
:1014A00010B500244148007808B1002010BD404923
:1014B0005220FFF727FF3F4908700846007830B9EF
:1014C000022008703C48FFF74CFE3A490870394842
:1014D0000078002868D10220364908703648007824
:1014E0003649097888421ED13348407833494978D3
:1014F000884218D13048807830498978884212D1A2
:101500002D48C0782D49C97888420CD1012400208B
:101510002B4908602B48007828B12BA0FEF776FEF7
:101520000020284908702448007829490978884211
:101530001ED12148407826494978884218D11E4852
:10154000807823498978884212D11B48C078204985
:10155000C97888420CD1012400201E4908601E4829
:10156000007828B11DA0FEF751FE00201A4908702E
:10157000114800781B490978884215D10E484078F7
:101580001849497888420FD10B48807815498978E5
:10159000884209D10848C0781249C978884203D1E5
:1015A000012411A0FEF732FE20467FE7180000203C
:1015B00026000020A1000020280000202D0000208F
:1015C000F8000020A3000020524649444F4E450039
:1015D00031000020FC000020A400002052464944B5
:1015E00054574F0035000020524649445448520099
:1015F00010B500F0C7F84FF480610748FFF74FFBC4
:101600004FF480510548FFF74AFBFFF7A5FE412044
:10161000FFF750FC10BD000000080140000C014025
:1016200001460020034A506820F4404008435060BF
:10163000704700000010024029B1064AD2690243F7
:10164000044BDA6104E0034AD2698243014BDA6158
:10165000704700000010024029B1064A9269024317
:10166000044B9A6104E0034A92698243014B9A61F8
:10167000704700000010024030B500210022002415
:1016800000232D4D6D6805F00C0121B1042905D012
:10169000082923D105E0294D056022E0274D05608A
:1016A0001FE0254D6D6805F47012234D6D6805F43B
:1016B0008034022505EB92421CB9214D554305604B
:1016C0000BE01D4D6D6805F400351DB11C4D5543F3
:1016D000056002E0194D5543056002E0174D0560B5
:1016E00000BF00BF144D6D6805F0F0010909154DEC
:1016F0006B5C0568DD4045600F4D6D6805F4E06189
:10170000090A104D6B5C4568DD4085600A4D6D68C7
:1017100005F46051C90A0B4D6B5C4568DD40C5603E
:10172000054D6D6805F44041890B074D6B5CC5683C
:10173000B5FBF3F5056130BD0010024000127A00E0
:1017400000093D00000000201000002070B5044694
:101750007E2000EA440040F080054FF480510848A4
:10176000FFF79BFA284600F0DDF800F0B1F80646D6
:101770004FF480510248FFF792FA304670BD0000E6
:10178000000C014000B587B001210C20FFF764FF79
:1017900001218803FFF750FF4FF48050ADF8180087
:1017A00010208DF81B0003208DF81A0006A9304880
:1017B000FFF796F94FF40050ADF8180010208DF89F
:1017C0001B0003208DF81A0006A92948FFF788F9A5
:1017D0004FF48040ADF8180004208DF81B00032062
:1017E0008DF81A0006A92248FFF77AF94FF4004055
:1017F000ADF8180010208DF81B0003208DF81A009A
:1018000006A91B48FFF76CF94FF48060ADF818008B
:1018100010208DF81B0003208DF81A0006A915482A
:10182000FFF75EF90020ADF804004FF48270ADF8C8
:1018300006000020ADF808000220ADF80A000120E3
:10184000ADF80C004002ADF80E003820ADF81000E5
:101850000020ADF812000720ADF8140001A90648D9
:1018600000F018F80121044800F008F807B000BDA6
:10187000000C0140000801400038004021B10288FE
:1018800042F04002028004E002884FF6BF731A4023
:101890000280704710B50022028802F441520B8882
:1018A0004C8823438C882343CC8823430C892343CF
:1018B0004C8923438C892343CC8923431A430280D8
:1018C000838B4FF2FF74234083830B8A038210BD06
:1018D00070B500251FE06006040E4FF4005110485B
:1018E000FFF7DBF9142000F099FE4FF480410C481B
:1018F000FFF7CAF9012801D144F00104142000F0D7
:101900008DFE4FF400510648FFF7C9F9142000F08E
:1019100085FE681CC5B2082DDDDB204670BD0000C9
:10192000000C014070B50446002524E004F080005E
:1019300028B14FF400411148FFF7B1F904E04FF42A
:1019400000410E48FFF7A9F9142000F067FE4FF49C
:1019500000510A48FFF7A1F9142000F05FFE4FF490
:1019600000510648FFF79BF9142000F057FE60066F
:10197000040E681CC5B2082DD8DB70BD000C0140F8
:10198000704770B505460C462846FFF7DFFE064651
:1019900046EA0401284600F00FFE70BD10B500F0C5
:1019A00001F810BD0CB5002001900090334800688C
:1019B00040F480303149086000BF3048006800F4CE
:1019C000003000900198401C0190009818B90198CF
:1019D000B0F5A06FF1D12948006800F4003010B1D3
:1019E0000120009001E0002000900098012843D1E0
:1019F0002348006840F0100021490860084600684C
:101A000020F0030008600846006840F0020008600B
:101A10001A484068194948600846406848600846C6
:101A2000406840F4806048600846406820F47C10BC
:101A300048600846406840F4E8104860084600687E
:101A400040F08070086000BF0C48006800F0007033
:101A50000028F9D00948406820F003000749486091
:101A60000846406840F00200486000BF03484068F4
:101A700000F00C000828F9D10CBD00000010024055
:101A80000020024070B505460C46284600F0F4FDE3
:101A900086B231464FF0804000F087FB204600F0D0
:101AA000EBFD86B231464FF0804000F080FB70BD08
:101AB00006480749086007484860002088600648D3
:101AC0000649086006488860704700000000F0C1C1
:101AD00004020020666626C0000040C018020020F4
:101AE000000040407047000010B51348006840F007
:101AF00001001149086008464068104908400E4935
:101B00004860084600680E4908400B4908600846CE
:101B1000006820F4802008600846406820F4FE0039
:101B200048604FF41F008860FFF738FF4FF00060F7
:101B30000449086010BD0000001002400000FFF8DA
:101B4000FFFFF6FE08ED00E0F0B50C46154600225A
:101B50000021068C4FF6FE773E400684028B018CF6
:101B60004FF60C7632407E1C06EA03162E433243B3
:101B7000104EB0420ED0104EB0420BD0B0F1804F9C
:101B800008D00E4EB04205D00D4EB04202D00D4EE0
:101B9000B04206D14FF6FD76314044F001063143A4
:101BA00005E04FF6F576314044F0010631430283FB
:101BB0000184F0BD002C01400034014000040040CD
:101BC00000080040000C0040F0B50C46154600220D
:101BD00000210026078C4FF6EF7C07EA0C070784EC
:101BE000028B018C4FF6FF7707EA041640F6FF4799
:101BF0003A404FF6FF7707EA03373A434FF6FF774D
:101C000007EA05273A43114FB8420ED0104FB842A9
:101C10000BD0B0F1804F08D00E4FB84205D00E4F18
:101C2000B84202D00D4FB84206D14FF6DF773940A7
:101C300046F01007394305E04FF65F77394044F02E
:101C40001007394302830184F0BD0000002C0140DD
:101C5000003401400004004000080040000C004037
:101C6000F0B50C461546002200210026078C4FF6E1
:101C7000FF6C07EA0C070784828B018C4FF6FF7715
:101C800007EA04264FF60C773A404FF6FF7707EA4B
:101C900003172F433A43114FB8420ED0104FB842AA
:101CA0000BD0B0F1804F08D00E4FB84205D00E4F88
:101CB000B84202D00D4FB84206D14FF6FF57394017
:101CC00046F48077394305E04FF2FF57394044F43A
:101CD0008077394382830184F0BD0000002C0140ED
:101CE000003401400004004000080040000C0040A7
:101CF000F0B50C461546002200210026078C4EF652
:101D0000FF7C07EA0C070784828B018C4FF6FF7774
:101D100007EA043640F6FF473A404FF6FF7707EAF6
:101D200005273A434FF6FF7707EA03373A43114F47
:101D3000B8420ED0104FB8420BD0B0F1804F08D04F
:101D40000E4FB84205D00E4FB84202D00D4FB842E8
:101D500006D14DF6FF77394046F48057394305E008
:101D600047F6FF57394044F4805739438283018452
:101D7000F0BD0000002C0140003401400004004090
:101D800000080040000C004010B50121314800F06F
:101D9000EEF800285CD001212E4800F0B5F82E485E
:101DA000007890B12D480068401C2C490860142828
:101DB0000BD30020284908702849086014212848BE
:101DC000FEF7DEFA00202749087027480088401CEB
:101DD0002549088025480068401C244908603228AD
:101DE00002D301202249087022480068401C214982
:101DF0000860322802D301201F4908701F4800786C
:101E0000401CC0B21D490870142803DB0020087074
:101E100000F03AFC1A48007858B11A480078401C83
:101E2000C0B218490870FA2803DB00200870144972
:101E300008701548007858B90120FEF733FF40427A
:101E4000124908610320FEF72DFF40421049086146
:101E500010BD00000008004025000020F400002014
:101E6000A00100202400002002010020F800002032
:101E7000A3000020FC000020A4000020000100209E
:101E80001800002001010020160000202C02002074
:101E9000480200201FB501210420FFF7CDFB42F2CC
:101EA0000F70ADF808004720ADF804000020ADF831
:101EB0000A00ADF8060001A90C4800F0A9F90122BA
:101EC00011460A4800F0C3F81E208DF800000120DA
:101ED0008DF801008DF802008DF803006846FFF7C9
:101EE000E1F80121014800F012F81FBD0008004090
:101EF00021B1028842F08002028004E002884FF69D
:101F00007F731A4002807047CA430282704721B132
:101F1000028842F00102028004E002884FF6FE735C
:101F20001A4002807047F0B50C4615461E46002147
:101F3000002200230189028B038C4FF6F877394089
:101F400021434FF6FC473A4040F201173A434FF61F
:101F5000DD773B404FF6FF7707EA06172F433B43F9
:101F6000018102830384F0BD0146888C704730B53F
:101F70000246002000230024158A05EA0103958902
:101F800005EA010413B10CB1012000E0002030BDCE
:101F900070B505460C46244885420ED0234885423C
:101FA0000BD0B5F1804F08D02148854205D021489B
:101FB000854202D02048854200D100E000BF208841
:101FC00050B92389A28861882846FFF7BDFDE188C2
:101FD000284600F0F1F825E0208804280AD123895A
:101FE000A28861882846FFF7EFFDE188284600F0C7
:101FF000ECF817E0208808280AD12389A288618894
:102000002846FFF72DFEE188284600F0EBF809E0AE
:102010002389A28861882846FFF76AFEE18828465E
:1020200000F0E9F870BD0000002C014000340140D0
:102030000004004000080040000C00400021018026
:102040004180012181800021C180018170471AB146
:1020500083890B43838102E083898B4383817047AB
:1020600070B5002400220023058C4FF6FF66354032
:102070000584028C8388848B4FF68F752C404FF635
:10208000FC752C400D882C434FF6FF552A400D89D6
:102090004FF6FF7606EA05252A434D8806EA052510
:1020A0002A43154DA84202D0144DA8421DD14FF22B
:1020B000FF752A404D894FF6FF7606EA05252A432B
:1020C0004FF6FF352A408D8806EA05252A434EF64D
:1020D000FF752B404DF6FF752B408D8906EA0515DF
:1020E0002B43CD8906EA05152B4383808483CD8855
:1020F0008587028470BD0000002C0140003401403F
:102100000A460021818B4FF6F773194011438183F2
:102110007047000070B5002200230024058C4EF6A5
:10212000FF7635400584038C8488828B48F6FF75E2
:102130002A404FF6FF452A400D884FF6FF7606EA03
:1021400005252A434DF6FF752B400D8906EA053516
:102150002B434D8806EA05352B430B4DA84202D090
:102160000A4DA84208D14BF6FF752C408D894FF6D9
:10217000FF7606EA85152C4384808283CD88A0F8FB
:102180004050038470BD0000002C01400034014029
:102190000A460021818B4FF2FF7319404FF6FF73FF
:1021A00003EA022319438183704781877047A0F8AF
:1021B0004010704781847047028B4FF6F3731A40CA
:1021C0000283028B0A4302837047028B4FF2FF3374
:1021D0001A400283028B4FF6FF7303EA01231A436E
:1021E00002837047828B4FF6F3731A408283828B8F
:1021F0000A4382837047828B4FF2FF331A408283F7
:10220000828B4FF6FF7303EA01231A4382837047E0
:10221000002202881D4B98420ED01D4B98420BD0D5
:10222000B0F1804F08D01B4B984205D01A4B984212
:1022300002D01A4B984204D14FF68F731A404B8844
:102240001A43174B984207D0164B984204D04FF6CA
:10225000FF431A40CB881A4302808B8883850B8802
:1022600003850A4B98420BD0094B984208D00E4B7D
:10227000984205D00D4B984202D00D4B984201D1A7
:102280000B7A03860123838270470000002C0140F3
:10229000003401400004004000080040000C0040F1
:1022A0000010004000140040004001400044014084
:1022B000004801402DE9F047074688460026B14610
:1022C000B246002400253846FEF7D6FA06461549E0
:1022D00008694146FEF758FA8146134908694146A4
:1022E000FEF78EFA824606EB0A05B5F5E16F02DDD0
:1022F0004FF4E16503E015F5E16F00DA0B4D704234
:1023000000EB0904B4F5E16F02DD4FF4E16403E092
:1023100014F5E16F00DA054C29462046FFF7B2FBC1
:10232000BDE8F087480200202C020020F8F8FFFFEB
:1023300070B50B4909680B4A126811440A4A1268C1
:10234000891A0A4A1268881A00F042FC05460849B0
:1023500000F060FB044600F01FFC0649086070BDF9
:10236000B8000020BC000020C4000020C8000020ED
:1023700000004040B00000202DE9F04104460E4826
:102380000168204600F06DFD07460C48816838461C
:1023900000F06AFC054609480168204600F064FC2C
:1023A0000646294600F0C8FA05490860024804605C
:1023B00008460068BDE8F0814801002018020020AE
:1023C0004401002010B540F225510F4800F030F8CC
:1023D000C0B10D4800F0E8F8C4B201200B49087004
:1023E0000B490878411C0A4A11700A490C541046DE
:1023F0000078142806DB14210648FDF7E3FF0020CF
:102400000349087010BD000000380140250000207D
:1024100024000020A001002021B1828942F4005252
:10242000828104E082894DF6FF731A4082817047F1
:1024300070B50246002400230025002040F66A16ED
:10244000B14200D100BFC1F3421501F01F030126C4
:1024500006FA03F3012D02D19689334006E0022DDE
:1024600002D1168A334001E0968A33400C120126CD
:1024700006FA04F41688344013B10CB1012000E0D0
:10248000002070BDF0B50346002400260025002082
:1024900040F66A17B94200D100BF1846C1F3421492
:1024A00001F01F06012707FA06F5012C01D10C30B7
:1024B00004E0022C01D1103000E014301AB107689A
:1024C0002F43076002E00768AF430760F0BD0000DC
:1024D0002DE9F04786B005460E460024A24600BF0F
:1024E000A1460027B08900B100BF2F462C8A4CF6C8
:1024F000FF700440F08804432C82AC894EF6F31040
:102500000440B08831890843718908430443AC8191
:10251000AC8A4FF6FF400440B0890443AC8201A866
:10252000FFF7AAF81F48874202D1DDF810A001E0AA
:10253000DDF80CA0A88900F4004040B10AEBCA0005
:1025400000EB0A1031684900B0FBF1F807E00AEB34
:10255000CA0000EB0A1031688900B0FBF1F8642072
:10256000B8FBF0F004012009642101FB1089A8895F
:1025700000F4004040B1322000EBC900B0FBF1F0A4
:1025800000F00700044308E0322000EB091064214A
:10259000B0FBF1F000F00F0004432C8106B0BDE861
:1025A000F08700000038014001468888C0F3080029
:1025B000704700BFFEE7000070B504460D467E2060
:1025C00000EA44064FF480510748FEF766FB3046A8
:1025D000FFF7A8F92846FFF7A5F94FF48051024804
:1025E000FEF75DFB70BD0000000C014030380A288A
:1025F00001D2012070470020704700BF704700B52E
:10260000034605E072B64FF47A7000F007F862B640
:10261000181EA3F101018BB2F4D100BD00EBC00183
:10262000C9004FF0E0225161002191610521116143
:1026300000BF4FF0E021096901F480310029F8D092
:102640004FF0E021096921F480314FF0E02211615F
:102650001146096921F001011161704700BF054A67
:10266000128802F04002002AF9D0C2B2014B1B1DB1
:102670001A807047003801400146002901DD0A46F2
:1026800000E04A421046704710B51C48007880B1FF
:102690001BA11C48FDF762FE18B101201A49087001
:1026A00007E01AA11748FDF759FE10B1022016499C
:1026B000087017A11348FDF751FE18B10020164904
:1026C000087019E015A10F48FDF748FE18B1012068
:1026D0001149087010E013A10A48FDF73FFE18B138
:1026E00000201249087007E011A10648FDF736FEE8
:1026F00010B101200D49087010BD00001600002027
:102700004F4E0000A0010020170000204F46460059
:10271000434F4D300000000015000020434F4D3165
:102720000000000053574930000000001400002052
:1027300053574931000000004FF4A060FEF7EAFC57
:102740004FF4E13000F0A6F8FFF7A4FBFEF760F9C4
:10275000FDF7C2FEFFF7ECFDFEF7E6FCFEF740FCDE
:10276000FFF7A6F9FEF7D0FBFEF742FF3DA0FDF70D
:102770004DFD75E03D48007800286FD03C4800785A
:1027800080BB3C48007820B100203A490870FDF732
:10279000C3FF4FF400613848FEF77FFA4FF48051D1
:1027A0003548FEF77CFAFEF77BFE98B101203049F0
:1027B0000870FEF769FC4FF400513048FEF76DFADF
:1027C0004FF4FA60FFF71BFF4FF400512B48FEF760
:1027D00066FA45E0FEF788FA044629492046FFF7E5
:1027E00069FD3DE0FFE74FF400612348FEF757FA2B
:1027F0004FF480512048FEF750FA22A0FDF706FD65
:1028000000BF224800780028FBD02048007801282B
:102810000FD141031948FEF740FA4FF49670FFF7C5
:10282000EEFE4FF400511548FEF739FAFEF742F874
:102830000FE01648007802280BD100200C490870E0
:102840000120134908700B49087041030B48FEF73B
:1028500026FA00200D49087002E0FFE7FEF714FC9D
:1028600088E7000053746172742E2E00140000205B
:10287000160000201900002000080140001001404F
:10288000CDCC4C3D51756572792121001700002097
:102890001800002010B586B00446012144F209005A
:1028A000FEF7DAFE01210420FEF7A6F94020ADF87C
:1028B000140003208DF8160018208DF8170005A9C4
:1028C0001B48FEF70DF98020ADF8140004208DF8A8
:1028D000170005A91648FEF703F925208DF800001A
:1028E00003208DF801008DF8020001208DF803000F
:1028F0006846FEF7D7FB01940020ADF80800ADF85C
:102900000A00ADF80C00ADF810000C20ADF80E0078
:1029100001A90848FFF7DCFD012240F225510548D6
:10292000FFF7B0FD01210348FFF776FD06B010BDAB
:10293000000C01400038014090EA010F48BF81F0CF
:10294000004100F1A082421A3CBF801A89184FEA68
:10295000D0524FF07F4C1CEA410FA2EBD15318BF6D
:102960009CEA026F00F03B804FF0004C4CEA0020E4
:102970004CEA012121FA03FC10EB0C0C1ED202F1EF
:10298000FF325FEA1C2040EBC25038BF70471CF09A
:102990007F0F4FEA400C18BFBCF17F4F38BF704724
:1029A000C3F12003994008BF20F00100BCF17F4F24
:1029B00038BF7047A0F1C04000F01DBA4FEA3C009C
:1029C000000A40EBC25028BF1CF0FF0F4FEA400C3A
:1029D000E6D018BFBCF17F4F38BF7047EAE79CEAEA
:1029E000026F05D010EA5C0F08BF00F0004070478E
:1029F00010B500F0BAF900BF64FBBE3E401058BFEE
:102A0000C0F14040491058BFC1F140418142EFF34D
:102A1000008070474FF47F0C1CEAD0121EBF1CEAE6
:102A2000D11392EA0C0F93EA0C0F00F0858090EA24
:102A3000010F48BF42F4807240F4000C41F40000E2
:102A40002CF07F4120F07F4000B58142A2EB0302D1
:102A50000FF2081CACEB504EC0F100009EF800E0F5
:102A60004FEA4E0E00FB0EFC38BF49004FEA2C1C0B
:102A700002F5FA020CFB0EF34FEACE1E4FEA112CC0
:102A80004FEAC1210EEB635E42EB22420EFB0CFCCF
:102A90004FEA1C5300FB03114FEA112C4FEA01319E
:102AA0000EFB0CFC4FEADC4C00FB0C11C14228BFB2
:102AB00009184CEB03335DF804EB10EB410143EBD9
:102AC000C250B2F57C0F38BF704729D512F0F00F15
:102AD0001CBF00F1C04000F00040704700818283BD
:102AE0008485868788898B8C8D8E8F91929395961D
:102AF00097999A9C9D9FA0A2A3A5A7A8AAACAEB0A7
:102B0000B2B3B5B7B9BCBEC0C2C5C7C9CCCED1D4AB
:102B1000D7D9DCDFE2E6E9ECF0F3F7FAFE000000DB
:102B20004FEA400C0CF1807CBCF17E4F28BF70470F
:102B3000B0F1C04000F05FB990EA010F0CEAD11388
:102B400048BF42F48072624538BF634507D213F430
:102B50007F0F16D080EA010000F00040704710B5EA
:102B600000F003F9097EFC3E00F005B880EA0100A0
:102B700000F00040704780EA010000F0004000F0E3
:102B80003AB912F47F0F04BF0248704780EA01008F
:102B900000F031B90000C07F41000B0ED3F19E025E
:102BA00008D950F400034FEA032323FA02F048BF88
:102BB0004042704710B500F0D8F800BF4992248019
:102BC000002070476FF0004282EA2000704700004A
:102BD00010F0004148BF4042B0FA80F310FA03F20F
:102BE000C3F19D030BD051EAC35101EB12205306F0
:102BF00038BF704700F1010008BF20F001007047A6
:102C000050EA010C00F113801CF5000F58BFBCF511
:102C1000000F01D48842704707D710F5000F58BF46
:102C200011F5000F15D488427047894270471CF592
:102C3000000F04D5BCF5000FF7D5814270474FF067
:102C4000807C1CEB400F38BF1CEB410F01D281424E
:102C5000704710B500F089F8922449004FF00050F9
:102C60004FF08051FFF7CABE4FF47F0C1CEAD01220
:102C70001EBF1CEAD11392EA0C0F93EA0C0F00F06E
:102C8000478090EA010F48BF42F480724FF0004C39
:102C90004CEA00204CEA012102EB0302A0FB0113E5
:102CA000A2F50002002918BF43F001035B0028BF12
:102CB0004FEA330342EB22425FEA132C4CEBC25043
:102CC0002EBFBCEB436FB2F57C0F70474FEA036C2D
:102CD000BCF1004F08BF20F00100B2F57C0F38BFF7
:102CE00070470BD582F0FF0212F5803FC8BF7047D6
:102CF00000F1C040D8BF00F00040704700F5000C64
:102D00005FEA4C0C48BF7047B0F1C04000F073B8A8
:102D100090EA010F0CEAD11348BF42F48072624579
:102D200038BF634504D280EA010000F000407047DC
:102D300010B500F01AF800BF8900013E00F007B896
:102D400000F009B85FEA410C5FEA1C6C08D080EA29
:102D5000010000F050B85FEA400C5FEA1C6CF6D14D
:102D60004FF00040A0F5800070470EF1020E2EF0EB
:102D7000030E5EF8044B244204D44FEA4102B2F140
:102D80007F4F11D84FEA4003B3F17F4F0CD80ED1DB
:102D90004FEAD07CB2F17F4F0CEB4C0C0CF1020CE3
:102DA00008BF4CEBD17C04E04FF0080C01E04FEA87
:102DB000D17C0CEB4C0324FA03F404F00704B4F1C7
:102DC000040C06D20EEB840CBDE810404CF0010C54
:102DD0006047DFE80CF0070802024FF00040A0F562
:102DE000800010BD0846420018BFD2F1807288BF33
:102DF00000F0004010BDFF2141EAD050C0057047EF
:102E000051EA000C00F113801CF5000F58BFBCF50F
:102E1000000F01D48142704707D711F5000F58BF4A
:102E200010F5000F15D481427047894270471CF598
:102E3000000F04D5BCF5000FF7D5884270474FF05E
:102E4000807C1CEB410F38BF1CEB400F01D2884245
:102E5000704780EA010081EA000180EA0100FFF783
:102E6000F8BE80F0004090EA010F7FF56CAD81F074
:102E7000004100F008B8000090EA010F48BF81F05F
:102E800000413FF560AD421A04D882F00042A0EB49
:102E9000020011444FEAD0524FF07F4C1CEA410F20
:102EA000A2EBD15318BF9CEA026F4AD04FF0004CFE
:102EB0004CEA00204CEA012121FA03FCB0EB0C0C97
:102EC0000FD412F0FE0F36D05FEA4C001DD5001271
:102ED00040EBC25038BF70471CF03F0F18BF70471F
:102EE0000BE0A2F101025FEA1C2040EBC25038BFA8
:102EF00070471CF07F0F18BF7047C3F12003994043
:102F000014BF401E20F00100704780084FEA1223D2
:102F100008BF7047B0FA80FCA2EB0C02CCF1280C81
:102F200060FA0CF093EA122F04BF00EBC250704716
:102F30004FEAC3707047130A5FEADC1008BF70479E
:102F4000F6E79CEA026F04D010EA5C0F08BF00208D
:102F5000704710B5FFF709FF40DFF63E81F00040F3
:102F6000704704000008000000000000000200019B
:102F700000001000942F0008000000204C01000009
:102F800028010008143000084C01002094070000BC
:102F900084010008412D0102030404000A180607F9
:102FA00008090204060801100B5CB2C001774495C1
:102FB00002E43E980B04B0B18FA5059E0A88FF017C
:102FC00014AA0702280D09BC102030405060FF07EA
:102FD0008029555B05061D191049094920614922C0
:102FE0001912490C3116123456789A892E11EB08B1
:102FF00001901ADD1723AC0C1AA4041ACC044BD090
:1030000007041B9A11A31AEE33011B0558BA1A5173
:043010003E0000007E
:04000005080001CD21
:00000001FF
